:03000000020901F1
:0C090100787FE4F6D8FD75810A0208F446
:1008D6003F065B4F666D7D077F6F777C395E79716A
:10084900EF75F00A84FEEF75F00A8485F00AD2A6E6
:10085900AF06EF9008D693F580C2A67580FFD2A7A0
:100869007580FEC2A77F057E00120893D2A6E50A0D
:100879009008D693F580C2A6D2A77580FDC2A77F3E
:06088900057E0002089349
:04088F007F0A7E005E
:10089300E4FDFCC3ED9FEC9E5015E4FBFA0BBB009B
:0F08A300010AEB646E4A70F50DBD00010C80E494
:0108B2002223
:0E08E600758901758C4C758AD0D2AFD2A922CB
:1008000020B41312088F20B40D0508E508B43C038A
:10081000E4F50830B4FD20B51212088F20B50CE5C0
:1008200008700375083C150830B5FD20B60C120899
:100830008F20B606E4F50830B6FD20B70B12088FFE
:0908400020B70530B7FDB28C228F
:0D08F4001208E6120800AF0812084980F64D
:03000B000208B335
:1008B300C0E0C0D0758CD0758AD00509E509B414A1
:1008C3000D7509000508E508B43C03750800D0D090
:0308D300D0E03240
:00000001FF
