:030000000209A84A
:0C09A800787FE4F6D8FD7581090209850E
:100998003F065B4F666D7D077F6F777C395E7971A7
:040961007F0A7E008B
:10096500E4FDFCC3ED9FEC9E5015E4FBFA0BBB00C8
:0F097500010AEB646E4A70F50DBD00010C80E4C1
:010984002250
:0C09B400EF90099893F580D2A6C2A6220D
:1008000075B0FE85B0085308F0E50864F060491241
:10081000096185B0085308F0E50864F0603A85B0D6
:1008200008E5082482601B24C0601224E0600924CB
:10083000F07012E4F509800D750901800875090250
:100840008003750903E50864F0600885B008530863
:10085000F080F2AF091209B475B0FD85B0085308F5
:10086000F0E50864F0604912096185B0085308F0AA
:10087000E50864F0603A85B008E5082483601B242D
:10088000C0601224E0600924F07012750904800D24
:1008900075090580087509068003750907E5086470
:1008A000F0600885B0085308F080F2AF091209B46F
:1008B00075B0FB85B0085308F0E50864F060491294
:1008C000096185B0085308F0E50864F0603A85B026
:1008D00008E5082485601B24C0601224E060092418
:1008E000F07012750908800D750909800875090AEC
:1008F000800375090BE50864F0600885B0085308AB
:10090000F080F2AF091209B475B0F785B00853084A
:10091000F0E50864F0604912096185B0085308F0F9
:10092000E50864F0603A85B008E5082489601B2476
:10093000C0601224E0600924F0701275090C800D6B
:1009400075090D800875090E800375090FE50864A7
:10095000F0600885B0085308F080F2AF091209B4BE
:010960002274
:10098500E4F580D2A6C2A67580C0D2A7C2A7120878
:030995000080FBE4
:00000001FF
