:030000000208D61D
:0C08D600787FE4F6D8FD75810C02080064
:1008C6003F065B4F666D7D077F6F777C395E79717A
:1008A600E4FDFCC3ED9FEC9E5015E4FBFA0BBB0088
:0F08B600010AEB646E4A70F50DBD00010C80E481
:0108C5002210
:100857008D0CA903D2A6EF9008C693F580C2A675A2
:1008670080FFD2A775807EC2A77F057E001208A6EB
:10087700D2A6E50C93F580C2A67580FFD2A7758036
:100887007DC2A77F051208A6D2A6E993F580C2A666
:0F08970075807FD2A775807BC2A77F050208A658
:10080000D2A57590FFC2A5D2A775807FC2A7D2B628
:1008100000C2B600D2B6E4F50BAB0AAD09AF0812C0
:100820000857050BE50BC3940A40EE7590FFD2B74D
:1008300000C2B700AF9000D2B7EF75F06484F5083E
:10084000EF75F06484E5F075F00A84F509EF75F052
:070850000A8485F00A80B75D
:00000001FF
