:030000000208AC47
:0C08AC00787FE4F6D8FD75810802080092
:1008780049204C4F5645204D45210048412D4A4FAF
:060888004B2E58595A00E6
:0B083300E50893FF12089D7F057E0082
:10083E00E4FDFCC3ED9FEC9E5015E4FBFA0BBB00F0
:0F084E00010AEB646E4A70F50DBD00010C80E4E9
:01085D002278
:0F088E00C2B58F8012083AD2B412083EC2B4220B
:0F089D00D2B58F8012083AD2B412083EC2B422EC
:10085E00C2A6C2A7C2B47F3812088E7F0C12088EB1
:0A086E007F0612088E7F0102088E3B
:1008000012085E7F8012088EE4F5089008781208BE
:10081000330508E508C3940A40F17FC012088EE44E
:10082000F5089008831208330508E508C3940A40C8
:03083000F180FE56
:00000001FF
